:020000040000FA
:08000000803102288731E22F54
:100244006E340D3400340834813168218131240046
:100254001614080081316821813124001615080024
:1002640071082000AC007008AB0008007108200081
:10027400B0007008AF00080071082000AE007008DC
:10028400AD00080068302100990098012200960111
:1002940008002000101E4F2950294B297008230004
:1002A4009A00080001308131E82181310D30890B39
:1002B4005929000008003830240095009601940163
:1002C4000930920021000E168E150800240014191E
:1002D4006C296D29682916081F39031D7229732991
:1002E4006829080021001508C03917389500E03046
:1002F40020009500E030F0007008B1000B110800F8
:100304002000901E862987298229A70123009D1C8D
:100314008C298D298F291D121D1619080800F0013A
:100324002000101E962997299E2923009E1E9B2992
:100334009C299E29F001F00A70080800F000813120
:10034400682181317008240091002000901DAB29A0
:10035400AC29A729901124001608080081315D21D9
:1003640081318231A722813181314421813181312E
:10037400742181318231302281310800F1008131D0
:1003840026218131200032088131A0218131710878
:10039400200035048131A021813181312C2181312A
:1003A4000800F30020002808F2007208F304730820
:1003B40004388131C02181317308FB398131C02176
:1003C40081311030890BE42900320800F500200047
:1003D400A8017508F0398131D32181317508F40001
:1003E4000330F435FF3E031DF3297435F0398131B0
:1003F400D32181310800F5002000A801A80A75085E
:10040400F0398131D32181317508F4000330F4359A
:10041400FF3E031D092A7435F0398131D32181311E
:100424000800F901FA01242A76087907840077087C
:100434007A3D850000088131FD2182310130F907C0
:100444000030FA3D76087907840077087A3D850004
:100454001200031D2E2A2F2A162A08000830230012
:100464009F0090309D0024309E0067309B009C01CB
:100474000030F0000030F100813138218231003049
:10048400F0000030F10081313E2182310030F00073
:100494000030F1008131322182312000A7010800AF
:1004A400F5006E30F4007408F800FF30F6000030F8
:1004B400F700642A7630F4007408F000783085314F
:1004C4008B2582316E3078060319692A6A2A5C2AE0
:1004D4007808F400750886008701740881007308A1
:1004E400860087017608C03F7708C13F0800F900FD
:1004F400932A7608BF3E8131E8218231A62A760804
:10050400933E8131E8218231A62A7608D33E813197
:10051400E8218231A62A76087F3E8131E8218231A2
:10052400A62A7908F700F8017808003A03199B2AEB
:100534008D2A7708023A03197B2A013A0319812A82
:10054400073A0319872A8D2A080022008C018D019D
:100554008E01313021008C00F0308D00BC308E00D3
:1005640023008E018D0111308C00703024008D0029
:100574008C0104308E002100951325008C018D011F
:100584008E01373026008C00F0308D00FF308E0055
:100594003F3027008C00F0308D00FF308E00173084
:1005A4003C00A40012303D00A60013303C00A10022
:1005B40011303D00A3001030A40014303C00A00012
:1005C4000800F7007708F60076082000B200003033
:1005D4008131C02182312730F600F530890BF02AB1
:1005E400F60BF02A000003308131E8218231073014
:1005F400F6007D30890BFC2AF60BFC2A0000033040
:100604008131E82182310730F6007D30890B082BD7
:10061400F60B082B000003308131E82182310730CA
:10062400F6007D30890B142BF60B142B00000230DE
:100634008131E82182310730F6007D30890B202B8F
:10064400F60B202B000028308131E8218231413023
:10065400F600EE30890B2C2BF60B2C2B00320C30D1
:100664008131E82182314130F600EE30890B382B9C
:10067400F60B382B003201308131E82182314130D0
:10068400F600EE30890B442BF60B442B0032063077
:100694008131E82182314130F600EE30890B502B54
:1006A400F60B502B003208008131B02183318131A7
:1006B4005D2183314E308231E322833181315421F3
:1006C4008331F601F60A0130823179228331113007
:1006D400F6008830F700823113228331F601F60ADE
:1006E40002308231792283317430F6008830F70089
:1006F4008231132283310D30FC00AF30FB00B63061
:10070400890B822BFB0B822BFC0B822B0032813159
:1007140054218331F601F60A013082317922833182
:100724007430F6008830F700823113228331F601E9
:10073400F60A02308231792283312230F600883081
:10074400F7008231132283310D30FC00AF30FB00FF
:10075400B630890BAB2BFB0BAB2BFC0BAB2B00325A
:10076400813154218331F601F60A01308231792234
:1007740083318330F6008830F700823113228331CD
:10078400F601F60A02308231792283313330F600E1
:100794008830F7008231132283310D30FC00AF30F2
:1007A400FB00B630890BD42BFB0BD42BFC0BD42BC6
:1007B4000032813154218331F601F60A013082314D
:1007C40079228331C930F6008830F7008231132250
:1007D4008331F601F60A0230823179228331E23024
:1007E400F6008830F7008231132283316E30FB002B
:1007F4007B08FD00052C2930FB007B08F0007D30D0
:1008040085318B2583312A307D06031D0A2C0B2C60
:10081400FD2B813191218331003A0319122C132CC1
:100824000B2C20002908FB007B08F00081314B21B0
:100834008331813154218331F601F60A013082314A
:10084400792283314430F6008830F7008231132254
:100854008331F601F60A02308231792283319230F3
:10086400F6008830F7008231132283310B30FC000C
:100874002630FB005E30890B3D2CFB0B3D2CFC0B22
:100884003D2C813154218331F601F60A0130823145
:10089400792283310030F6008830F7008231132248
:1008A4008331F601F60A0230823179228331200045
:1008B400B301B401A72C2930FB007B08F3007D3081
:1008C4008231522283317D088131FD218331200020
:1008D4003408A1003308A0000F30A0050030A105A2
:1008E4000430A035A10D890B732C2A08A300290814
:1008F400A2000F30A2050030A30522082004A400A2
:1009040023082104A500813191218331003A031980
:100914008C2C8D2C852C20002408FB007B08F000F7
:1009240081314B21833120003308013EB300003074
:10093400343DB4000330FC008A30FB005630890B90
:10094400A12CFB0BA12CFC0BA12C003020003402A9
:100954000D30031933020318B02CB12CB72C2330FB
:100964007D06031DB62CB72C5D2C813154218331B7
:10097400F601F60A01308231792283315430F600CF
:100984008830F700823113228331F601F60A0230EF
:100994008231792283319230F6008830F700823137
:1009A40013228331813182218331FB007B082000B3
:1009B400A60023009D010B30FC002630FB005E30B6
:1009C400890BE22CFB0BE22CFC0BE22C63302000A5
:1009D4002606031DEE2CEF2C0D2D8131542183317D
:1009E400F601F60A01308231792283316430F6004F
:1009F4008830F700823113228331F601F60A02307F
:100A0400823179228331BC30F6008830F70082319C
:100A1400132283311D2D813154218331F601F60ACD
:100A24000130823179228331A130F6008830F70019
:100A34008231132283310B30FC002630FB005E3000
:100A4400890B222DFB0B222DFC0B222D81315421ED
:100A54008331F601F60A0130823179228331C930BB
:100A6400F6008830F700823113228331F601F60A4A
:100A74000230823179228331AF30F6008830F700BA
:100A84008231132283316E30FB007B08FD00522D2E
:100A94002930FB007B08F0007D3085318B258331C4
:100AA4002A307D06031D572D582D4A2D90302300E2
:100AB4009D00813191218331003A0319622D632D08
:100AC4005B2D20002908FB007B08F00081314B21BD
:100AD4008331813154218331F601F60A01308231A8
:100AE400792283314430F6008830F70082311322B2
:100AF4008331F601F60A0230823179228331923051
:100B0400F6008830F700823113228331382C80318B
:100B14000228F2006E30F100720886008701710825
:100B24008100700886008701FF30C03F0030C13F5C
:100B340022008C100C150E148E1420000E19A32DF7
:100B4400A42DC32D4130F100EE30890BA72DF10BFC
:100B5400A72D003220000E19B02DB12DC32D0E1D6E
:100B6400B42DB52DB12D3130F10072088600870106
:100B7400710881007008860087010130C03F003091
:100B8400C13F0D1AC62DC72DE62D4130F100EE30C0
:100B9400890BCA2DF10BCA2D003220000D1AD32D5A
:100BA400D42DE62D0D1ED72DD82DD42D3230F100A5
:100BB4007208860087017108810070088600870129
:100BC4000230C03F0030C13F8D1AE92DEA2D092EB5
:100BD4004130F100EE30890BED2DF10BED2D00329B
:100BE40020008D1AF62DF72D092E8D1EFA2DFB2DC2
:100BF400F72D3330F10072088600870171088100F7
:100C04007008860087010330C03F0030C13F0D1BD0
:100C14000C2E0D2E2C2E4130F100EE30890B102EAF
:100C2400F10B102E003220000D1B192E1A2E2C2E23
:100C34000D1F1D2E1E2E1A2E4130F1007208860043
:100C44008701710881007008860087010A30C03F5F
:100C54000030C13F22008C140C110E148E1420009D
:100C64000E19352E362E552E4130F100EE30890BFB
:100C7400392EF10B392E003220000E19422E432E4C
:100C8400552E0E1D462E472E432E3430F100720889
:100C9400860087017108810070088600870104308E
:100CA400C03F0030C13F0D1A582E592E782E4130C6
:100CB400F100EE30890B5C2EF10B5C2E003220002B
:100CC4000D1A652E662E782E0D1E692E6A2E662E3E
:100CD4003530F100720886008701710881007008C0
:100CE400860087010530C03F0030C13F8D1A7B2E3E
:100CF4007C2E9B2E4130F100EE30890B7F2EF10BC0
:100D04007F2E003220008D1A882E892E9B2E8D1E58
:100D14008C2E8D2E892E3630F100720886008701C4
:100D2400710881007008860087010630C03F0030DA
:100D3400C13F0D1B9E2E9F2EBE2E4130F100EE3082
:100D4400890BA22EF10BA22E003220000D1BAB2E1C
:100D5400AC2EBE2E0D1FAF2EB02EAC2E4230F100A5
:100D64007208860087017108810070088600870177
:100D74000B30C03F0030C13F22008C140C150E1004
:100D84008E1420000E19C72EC82EE72E4130F10014
:100D9400EE30890BCB2EF10BCB2E003220000E1936
:100DA400D42ED52EE72E0E1DD82ED92ED52E373083
:100DB400F1007208860087017108810070088600BE
:100DC40087010730C03F0030C13F0D1AEA2EEB2ED9
:100DD4000A2F4130F100EE30890BEE2EF10BEE2E8E
:100DE400003220000D1AF72EF82E0A2F0D1EFB2EAE
:100DF400FC2EF82E3830F100720886008701710845
:100E040081007008860087010830C03F0030C13F70
:100E14008D1A0D2F0E2F2D2F4130F100EE30890B3E
:100E2400112FF10B112F003220008D1A1A2F1B2FB6
:100E34002D2F8D1E1E2F1F2F1B2F3930F1007208EE
:100E440086008701710881007008860087010930D7
:100E5400C03F0030C13F0D1B302F312F502F413088
:100E6400F100EE30890B342FF10B342F00322000C7
:100E74000D1B3D2F3E2F502F0D1F412F422F3E2F74
:100E84004330F10072088600870171088100700800
:100E9400860087010C30C03F0030C13F22008C1413
:100EA4000C150E148E1020000E19592F5A2F792F5D
:100EB4004130F100EE30890B5D2FF10B5D2F0032D4
:100EC40020000E19662F672F792F0E1D6A2F6B2FA6
:100ED400672F2A30F10072088600870171088100AB
:100EE4007008860087010E30C03F0030C13F0D1AE4
:100EF4007C2F7D2F9B2F4130F100EE30890B802F0A
:100F0400F10B802F003220000D1A892F8A2F9B2F7E
:100F14000D1E8D2F8E2F8A2F3030F100720886001F
:100F24008701710881007008860087010030C03F86
:100F3400C13F8D1A9E2F9F2FBE2F4130F100EE30FE
:100F4400890BA22FF10BA22F003220008D1AAB2F98
:100F5400AC2FBE2F8D1EAF2FB02FAC2F2330F1003E
:100F64007208860087017108810070088600870175
:100F74000F30C03F0030C13F0D1BC12FC22FE12FE6
:100F84004130F100EE30890BC52FF10BC52F003233
:100F940020000D1BCE2FCF2FE12F0D1FD22FD32FCB
:100FA400CF2F4430F1007208860087017108810058
:100FB4007008860087010D30C03F0030C13F080033
:100FC400813122218731FD00813123218731B30012
:100FD400813124218731B400813125218731B50045
:100FE400A001A101A201A301A401A501A601A701D9
:100FF400A801A901AA0120008331562B45346E347F
:10100400743465347234203450346134733473343A
:1010140077346F34723464343A34203400344D34C9
:101024006134733474346534723420344334613439
:101034006D3470342034323430343234313400344A
:1010440045346D34623465346434643465346434F2
:101054002034533479347334743465346D347334D4
:10106400003453346F346C347534743469346F34ED
:101074006E34203446346134633474346F347234DF
:101084007934003449346E346934743469346134E5
:101094006C3469347A3465342034463450344734FB
:1010A40041340034463450344734413420345034CD
:1010B40072346F34633465347334733469346E3426
:1010C4006734003443346F34643465342034693411
:1010D4007334203463346F3472347234653463345B
:1010E4007434003420342034453446345234453486
:1010F40049342034503461347234693473342034C4
:101104000034203420342A342A34203450347234C5
:101114006F346A346534743420342A342A34003405
:1011240050346C346534613473346534203457344A
:1011340061346934743420342E342E34003443340E
:101144006F34643465342034693473342034773430
:1011540072346F346E3467340034743472347934D6
:10116400203461346734613469346E3420342E346D
:101174002E3400345434683461346E346B34203487
:1011840079346F34753420342E342E340034503492
:101194007234653473347334203427342A34273456
:1011A400203474346F340034823401344B340134C9
:1011B40091340134003400340034003430340234C7
:1011C40063346F346E34743469346E347534653416
:0811D40020342E342E340034C7
:020000040001F9
:06000E00FC3FFF3E9F3F96
:00000001FF
