:08000000803102288731E22F54
:1001D0006E340D340034083481312E2180312400F6
:1001E0001614080081312E218031240016150800D4
:1001F00071082000AC007008AB00080071082000F6
:10020000B0007008AF00080071082000AE00700850
:10021000AD00080068302100990098012200960185
:1002200008002000101E1529162911297008230026
:100230009A00080001308131AE2181310D30890BE7
:100240001F29000008003830240095009601940111
:100250000930920021000E168E1508002400141992
:10026000322933292E2916081F39031D3829392927
:100270002E29080021001508C03917389500E030F4
:1002800020009500E030F0007008B1000B1108006C
:100290002000901E4C294D294829A70123009D1CB0
:1002A0005229532955291D121D1619080800F0015D
:1002B0002000101E5C295D29642923009E1E6129EF
:1002C00062296429F001F00A70080800F000813109
:1002D0002E2181317008240091002000901D712989
:1002E00072296D29901124001608080081312321FC
:1002F000813182316D22813181310A218131813117
:100300003A2181318131F62181310800F1008031BB
:10031000EC20813120003208813166218131710861
:10032000200035048131662181318031F220813114
:100330000800F30020002808F2007208F304730894
:1003400004388131862181317308FB39813186215E
:1003500081311030890BAA2900320800F5002000F5
:10036000A8017508F0398131992181317508F400AF
:100370000330F435FF3E031DB9297435F03981315E
:10038000992181310800F5002000A801A80A75080C
:10039000F0398131992181317508F4000330F43549
:1003A000FF3E031DCF297435F03981319921813108
:1003B0000800F901FA01EA2976087907840077082C
:1003C0007A3D850000088131C32181310130F90770
:1003D0000030FA3D76087907840077087A3D850079
:1003E0001200031DF429F529DC2908000830230038
:1003F0009F0090309D0024309E0067309B009C0140
:100400000030F0000030F1008031FE2081310030FA
:10041000F0000030F1008131042181310030F00022
:100420000030F1008031F82081312000A701080060
:10043000F5006E30F4007408F800FF30F60000306C
:10044000F7002A2A7630F4007408F00078308331FF
:100450001C2382316E30780603192F2A302A222A73
:100460007808F40075088600870174088100730815
:10047000860087017608C03F7708C13F0800F90071
:10048000592A7608BF3E8131AE2182316C2A760826
:10049000933E8131AE2182316C2A7608D33E813180
:1004A000AE2182316C2A76087F3E8131AE218231C5
:1004B0006C2A7908F700F8017808003A0319612AD4
:1004C000532A7708023A0319412A013A0319472AA5
:1004D000073A03194D2A532A080022008C018D0186
:1004E0008E01313021008C00F0308D00BC308E0048
:1004F00023008E018D0111308C00703024008D009E
:100500008C0104308E002100951325008C018D0193
:100510008E01373026008C00F0308D00FF308E00C9
:100520003F3027008C00F0308D00FF308E001730F8
:100530003C00A40012303D00A60013303C00A10096
:1005400011303D00A3001030A40014303C00A00086
:100550000800F7007708F60076082000B2000030A7
:100560008131862182312730F600F530890BB62A99
:10057000F60BB62A000003308131AE2182310730FC
:10058000F6007D30890BC22AF60BC22A0000033028
:100590008131AE2182310730F6007D30890BCE2AC1
:1005A000F60BCE2A000003308131AE2182310730B4
:1005B000F6007D30890BDA2AF60BDA2A00000230C9
:1005C0008131AE2182310730F6007D30890BE62A79
:1005D000F60BE62A000028308131AE21823141300D
:1005E000F600EE30890BF22AF60BF22A00320C30BC
:1005F0008131AE2182314130F600EE30890BFE2A86
:10060000F60BFE2A003201308131AE2182314130B9
:10061000F600EE30890B0A2BF60B0A2B003206305F
:100620008131AE2182314130F600EE30890B162B3C
:10063000F60B162B00320800F2006E30F100720843
:100640008600870171088100700886008701FF30ED
:10065000C03F0030C13F22008C100C150E148E14C8
:1006600020000E19342B352B542B4130F100EE3085
:10067000890B382BF10B382B003220000E19412B3F
:10068000422B542B0E1D452B462B422B3130F100B3
:100690007208860087017108810070088600870152
:1006A0000130C03F0030C13F0D1A572B582B772B1C
:1006B0004130F100EE30890B5B2BF10B5B2B0032EC
:1006C00020000D1A642B652B772B0D1E682B692BD0
:1006D000652B3230F10072088600870171088100B5
:1006E0007008860087010230C03F0030C13F8D1A7C
:1006F0007A2B7B2B9A2B4130F100EE30890B7E2B2D
:10070000F10B7E2B003220008D1A872B882B9A2B21
:100710008D1E8B2B8C2B882B3330F10072088600BA
:100720008701710881007008860087010330C03F8F
:100730000030C13F0D1B9D2B9E2BBD2B4130F10086
:10074000EE30890BA12BF10BA12B003220000D1BE9
:10075000AA2BAB2BBD2B0D1FAE2BAF2BAB2B4130E0
:10076000F100720886008701710881007008860018
:1007700087010A30C03F0030C13F22008C140C11A9
:100780000E148E1420000E19C62BC72BE62B4130F9
:10079000F100EE30890BCA2BF10BCA2B003220007E
:1007A0000E19D32BD42BE62B0E1DD72BD82BD42BE5
:1007B0003430F100720886008701710881007008EA
:1007C000860087010430C03F0030C13F0D1AE92B7D
:1007D000EA2B092C4130F100EE30890BED2BF10BA7
:1007E000ED2B003220000D1AF62BF72B092C0D1ED5
:1007F000FA2BFB2BF72B3530F100720886008701AE
:10080000710881007008860087010530C03F003004
:10081000C13F8D1A0C2C0D2C2C2C4130F100EE30E8
:10082000890B102CF10B102C003220008D1A192C82
:100830001A2C2C2C8D1E1D2C1E2C1A2C3630F1003F
:1008400072088600870171088100700886008701A0
:100850000630C03F0030C13F0D1B2F2C302C4F2CD9
:100860004130F100EE30890B332CF10B332C003288
:1008700020000D1B3C2C3D2C4F2C0D1F402C412CDF
:100880003D2C4230F100720886008701710881001A
:100890007008860087010B30C03F0030C13F220046
:1008A0008C140C150E108E1420000E19582C592C77
:1008B000782C4130F100EE30890B5C2CF10B5C2C74
:1008C000003220000E19652C662C782C0E1D692C28
:1008D0006A2C662C3730F100720886008701710897
:1008E00081007008860087010730C03F0030C13F9B
:1008F0000D1A7B2C7C2C9B2C4130F100EE30890BA7
:100900007F2CF10B7F2C003220000D1A882C892CB3
:100910009B2C0D1E8C2C8D2C892C3830F1007208EC
:100920008600870171088100700886008701083001
:10093000C03F0030C13F8D1A9E2C9F2CBE2C4130F1
:10094000F100EE30890BA22CF10BA22C003220001A
:100950008D1AAB2CAC2CBE2C8D1EAF2CB02CAC2C1D
:100960003930F10072088600870171088100700833
:10097000860087010930C03F0030C13F0D1BC12CEC
:10098000C22CE12C4130F100EE30890BC52CF10B6B
:10099000C52C003220000D1BCE2CCF2CE12C0D1FBE
:1009A000D22CD32CCF2C4330F10072088600870163
:1009B000710881007008860087010C30C03F00304C
:1009C000C13F22008C140C150E148E1020000E193D
:1009D000EA2CEB2C0A2D4130F100EE30890BEE2C85
:1009E000F10BEE2C003220000E19F72CF82C0A2DFA
:1009F0000E1DFB2CFC2CF82C2A30F100720886000E
:100A00008701710881007008860087010E30C03FA1
:100A10000030C13F0D1A0D2D0E2D2C2D4130F1004F
:100A2000EE30890B112DF10B112D003220000D1A23
:100A30001A2D1B2D2C2D0D1E1E2D1F2D1B2D303064
:100A4000F100720886008701710881007008860035
:100A500087010030C03FC13F8D1A2F2D302D4F2D03
:100A60004130F100EE30890B332DF10B332D003284
:100A700020008D1A3C2D3D2D4F2D8D1E402D412DDA
:100A80003D2D2330F1007208860087017108810036
:100A90007008860087010F30C03F0030C13F0D1B3A
:100AA000522D532D722D4130F100EE30890B562D11
:100AB000F10B562D003220000D1B5F2D602D722D85
:100AC0000D1F632D642D602D4430F10072088600E7
:100AD0008701710881007008860087010D30C03FD2
:100AE0000030C13F080081317621853181312321D9
:100AF00085314E308231A922853181311A218531EB
:100B0000F601F60A013082313F2285311430F600B9
:100B10008830F7008131D9218531F601F60A02309B
:100B200082313F2285318730F6008830F7008131ED
:100B3000D92185310D30FC00AF30FB00B630890B78
:100B40009F2DFB0B9F2DFC0B9F2D003281311A2115
:100B50008531F601F60A013082313F228531873036
:100B6000F6008830F7008131D9218531F601F60A87
:100B7000023082313F2285312530F6008830F7007F
:100B80008131D92185310D30FC00AF30FB00B6300A
:100B9000890BC82DFB0BC82DFC0BC82D00328131F1
:100BA0001A218531F601F60A013082313F22853162
:100BB000DF30F6008830F7008131D9218531F60128
:100BC000F60A023082313F2285313630F600883015
:100BD000F7008131D92185310D30FC00AF30FB00A9
:100BE000B630890BF12DFB0BF12DFC0BF12D0032F2
:100BF00081311A218531F601F60A013082313F2216
:100C000085310630F6008930F7008131D9218531F0
:100C1000F601F60A023082313F2285311F30F6009C
:100C20008930F7008131D92185316E30FB007B0896
:100C3000FD00222E2930FB007B08F0007D3083313F
:100C40001C2385312A307D06031D272E282E1A2EBF
:100C5000813157218531003A03192F2E302E282E4D
:100C600020002908FB007B08F0008131112185312B
:100C700081311A218531F601F60A013082313F2295
:100C800085315730F6008830F7008131D921853120
:100C9000F601F60A023082313F228531A530F60096
:100CA0008830F7008131D92185310B30FC002630A6
:100CB000FB005E30890B5A2EFB0B5A2EFC0B5A2E72
:100CC00081311A218531F601F60A013082313F2245
:100CD0008531B430F6008830F7008131D921853173
:100CE000F601F60A023082313F2285312000B3013D
:100CF000B401C42E2930FB007B08F3007D30823123
:100D0000182285317D088131C321853120003408C6
:100D1000A1003308A0000F30A0050030A105043069
:100D2000A035A10D890B902E2A08A3002908A20046
:100D30000F30A2050030A30522082004A4002308D8
:100D40002104A500813157218531003A0319A92ECC
:100D5000AA2EA22E20002408FB007B08F00081317F
:100D60001121853120003308013EB3000030343DAD
:100D7000B4000330FC008A30FB005630890BBE2ED5
:100D8000FB0BBE2EFC0BBE2E0030200034020D30BB
:100D900003193302031CCD2ECE2E7A2E81311A2157
:100DA0008531F601F60A013082313F228531F93072
:100DB000F6008830F7008131D9218531F601F60A35
:100DC000023082313F228531EC30F6008830F70066
:100DD0008131D92185316E30FB007B08FD00F82E72
:100DE0002930FB007B08F0007D3083311C238531E6
:100DF00023307D06031DFD2EFE2EF02E813157215E
:100E00008531003A0319052F062FFE2E20002908F0
:100E1000FB007B08F00081311121853181311A21DD
:100E20008531F601F60A013082313F228531673083
:100E3000F6008830F7008131D9218531F601F60AB4
:100E4000023082313F2285314730F6008830F7008A
:100E50008131D9218531813148218531FB007B08E1
:100E60002000A60023009D010B30FC002630FB0073
:100E70005E30890B392FFB0B392FFC0B392FF130EA
:100E800020002606031D452F462F642F81311A218D
:100E90008531F601F60A013082313F228531773003
:100EA000F6008830F7008131D9218531F601F60A44
:100EB000023082313F2285313730F6008930F70029
:100EC0008131D9218531742F81311A218531F60183
:100ED000F60A013082313F228531D130F600883068
:100EE000F7008131D92185310B30FC002630FB0021
:100EF0005E30890B792FFB0B792FFC0B792F813119
:100F00001A218531F601F60A013082313F228531FE
:100F1000C330F6008830F7008131D9218531F601E0
:100F2000F60A023082313F2285312B30F6008930BB
:100F3000F7008131D92185316E30FB007B08FD003F
:100F4000A92F2930FB007B08F0007D3083311C2362
:100F500085312A307D06031DAE2FAF2FA12F903093
:100F600023009D00813157218531003A0319B92FA3
:100F7000BA2FB22F20002908FB007B08F000813136
:100F80001121853181311A218531F601F60A0130AE
:100F900082313F2285310030F6008830F700813100
:100FA000D9218531F601F60A023082313F2285319E
:100FB0009630F6008830F7008131D9218531552EE1
:100FC000803102288031E8208731FD008031E9201E
:100FD0008731B3008031EA208731B4008031EB20C3
:100FE0008731B500A001A101A201A301A401A501BF
:100FF000A601A701A801A901AA0120008531732D2E
:1010000049346E3469347434693461346C3469340D
:101010007A3465342034743468346534203446348A
:1010200050344734413400344D34613473347434B3
:10103000653472342034433461346D347034203478
:101040003234303432343134003445346D34623427
:10105000653464346434653464342034533479340E
:101060007334743465346D347334003453346F34F2
:101070006C347534743469346F346E3420344634CF
:101080006134633474346F347234793400345034DE
:101090006C346534613473346534203477346134AE
:1010A0006934743420342E342E342E3400344934D0
:1010B0006E3469347434693461346C3469347A342C
:1010C0006534203446345034473441340034463497
:1010D0005034473441342034503472346F346334E4
:1010E00065347334733469346E3467340034433494
:1010F0006F34643465342034693473342034633499
:101100006F34723472346534633474340034203490
:101110002034453446345234453449342034503434
:1011200061347234693473342034003450346C3494
:101130006534613473346534203457346134693430
:10114000743420342E342E34003450346C346534EE
:101150006134733465342034573461346934743401
:101160002E342E342E34003445346E3474346534C9
:1011700072342034503461347334733477346F34C0
:1011800072346434003450347234653473347334DC
:10119000203427342A342734203474346F342034F4
:1011A000003443346F346434653420346934733428
:1011B0002034773472346F346E3467340034203422
:1011C00020342A342034503472346F346A34653415
:1011D000743420342A34003463346F346E347434FD
:1011E00069346E347534653420342E342E342E3404
:1011F00000345034723465347334733420342734FB
:1012000023342734203474346F340034503472342F
:10121000653473347334203427342A34273420342B
:1012200074346F3400344834013411340134573489
:1012300001340034003400340034F63401346334B3
:101240006F346E34743469346E34753465342034DC
:101250002E342E34003474347234793420346134B2
:101260006734613469346E342E342E34003454348F
:10127000683461346E346B34203479346F347534AF
:061280002E342E34003470
:020000040001F9
:06000E00FC3FFF3E9F3F96
:00000001FF
