:08000000803102288731E02F56
:10000C002000101E0A280B280628700823009A00CE
:10001C00080001308031AE2080310D30890B14285E
:10002C000000080038302400950096019401093036
:10003C00920021000E168E15080024001419272892
:10004C002828232816081F39031D2D282E2823287D
:10005C000800573445344C3443344F344D34453414
:10006C0000340D34003408346E3421001508C039C6
:10007C0017389500E03020009500E030F000700853
:10008C00ED000B1108002000901E4D284E28492829
:10009C00D80123009D1C5328542856281D121D16C8
:1000AC0019080800F0012000101E5D285E28652844
:1000BC0023009E1E622863286528F001F00A700850
:1000CC000800F0008031232080317008240091005A
:1000DC002000901D722873286E2890112400160899
:1000EC0008008031182080318131BB2180318F3163
:1000FC00F927803180313B20803181310D218031D5
:10010C000800F1008F31CF27803120006E0880313C
:10011C0067208031710820006504803167208031B0
:10012C008F31D52780310800F3007D08F20072086A
:10013C00F304730804388031872080317308FB394D
:10014C008031872080311030890BAA2800320800BA
:10015C00F500FD017508F03980319A208031750861
:10016C00F4000330F435FF3E031DB8287435F03924
:10017C0080319A2080310800F500FD01FD0A7508D8
:10018C00F03980319A2080317508F4000330F43551
:10019C00FF3E031DCD287435F03980319A20803113
:1001AC000800F4007408F2007208F300E128013032
:1001BC00F2007208F4077408860087010108031D19
:1001CC00E828E928DD2873087402F000F101F01B1F
:1001DC00F1030800F901FA01012976087907840076
:1001EC0077087A3D850000088031C22080310130CB
:1001FC00F9070030FA3D76087907840077087A3DD4
:10020C0085001200031D0B290C29F3280800083067
:10021C0023009F0090309D0024309E0067309B008F
:10022C009C010030F0000030F1008F31E12781316A
:10023C000030F0000030F1008F31E72781310030C1
:10024C00F0000030F1008F31DB2781312000D80124
:10025C000800F5006E30F4007408F800FF30F6006A
:10026C000030F70041297630F4007408F000783043
:10027C0082316A2281316E3078060319462947296A
:10028C0039297808F4007508860087017408810004
:10029C007308860087017608C03F7708C13F0800C5
:1002AC00F90070297608BF3E8031AE208131832958
:1002BC007608933E8031AE20813183297608D33E77
:1002CC008031AE208131832976087F3E8031AE208B
:1002DC00813183297908F700F8017808003A03196D
:1002EC0078296A297708023A03195829013A03191F
:1002FC005E29073A031964296A290800F90079086C
:10030C008031D72081317008F8007808F907A429CA
:10031C000130F6020030F73B7508860087010108B2
:10032C00F800790886008701780881000130F80010
:10033C007808F5070130F8007808F9077608770493
:10034C000319A929AA29B229750886008701010871
:10035C00031DB129B2298E297908860087018101F4
:10036C000130F8007808F907080022008C018D0193
:10037C008E01313021008C00F0308D00BC308E00AD
:10038C0023008E018D0111308C00703024008D0003
:10039C008C0104308E002100951325008C018D01F9
:1003AC008E01373026008C00F0308D00FF308E002F
:1003BC003F3027008C00F0308D00FF308E0017305E
:1003CC003C00A40012303D00A60013303C00A100FC
:1003DC0011303D00A3001030A40014303C00A000EC
:1003EC000800F7007708F60076082000EE000030D1
:1003FC008031872081312730F600F530890B042AB3
:10040C00F60B042A000003308031AE208131073016
:10041C00F6007D30890B102AF60B102A00000330F1
:10042C008031AE2081310730F6007D30890B1C2ADB
:10043C00F60B1C2A000003308031AE2081310730CE
:10044C00F6007D30890B282AF60B282A0000023092
:10045C008031AE2081310730F6007D30890B342A93
:10046C00F60B342A000028308031AE208131413027
:10047C00F600EE30890B402AF60B402A00320C3085
:10048C008031AE2081314130F600EE30890B4C2AA0
:10049C00F60B4C2A003201308031AE2081314130D4
:1004AC00F600EE30890B582AF60B582A003206302B
:1004BC008031AE2081314130F600EE30890B642A58
:1004CC00F60B642A00320800F2006E30F10072085C
:1004DC008600870171088100700886008701FF3053
:1004EC00C03F0030C13F22008C100C150E148E142E
:1004FC0020000E19822A832AA22A4130F100EE3004
:10050C00890B862AF10B862A003220000E198F2ABD
:10051C00902AA22A0E1D932A942A902A3130F10097
:10052C0072088600870171088100700886008701B7
:10053C000130C03F0030C13F0D1AA52AA62AC52A9A
:10054C004130F100EE30890BA92AF10BA92A0032B7
:10055C0020000D1AB22AB32AC52A0D1EB62AB72AB4
:10056C00B32A3230F10072088600870171088100CD
:10057C007008860087010230C03F0030C13F8D1AE1
:10058C00C82AC92AE82A4130F100EE30890BCC2A5E
:10059C00F10BCC2A003220008D1AD52AD62AE82A53
:1005AC008D1ED92ADA2AD62A3330F1007208860039
:1005BC008701710881007008860087010330C03FF5
:1005CC000030C13F0D1BEB2AEC2A0B2B4130F10004
:1005DC00EE30890BEF2AF10BEF2A003220000D1BB5
:1005EC00F82AF92A0B2B0D1FFC2AFD2AF92A413077
:1005FC00F10072088600870171088100700886007E
:10060C0087010A30C03F0030C13F22008C140C110E
:10061C000E148E1420000E19142B152B342B413074
:10062C00F100EE30890B182BF10B182B0032200047
:10063C000E19212B222B342B0E1D252B262B222B76
:10064C003430F1007208860087017108810070084F
:10065C00860087010430C03F0030C13F0D1A372B94
:10066C00382B572B4130F100EE30890B3B2BF10B23
:10067C003B2B003220000D1A442B452B572B0D1E03
:10068C00482B492B452B3530F10072088600870129
:10069C00710881007008860087010530C03F00306A
:1006AC00C13F8D1A5A2B5B2B7A2B4130F100EE3067
:1006BC00890B5E2BF10B5E2B003220008D1A672B01
:1006CC00682B7A2B8D1E6B2B6C2B682B3630F10024
:1006DC007208860087017108810070088600870106
:1006EC000630C03F0030C13F0D1B7D2B7E2B9D2B58
:1006FC004130F100EE30890B812BF10B812B003254
:10070C0020000D1B8A2B8B2B9D2B0D1F8E2B8F2BC3
:10071C008B2B4230F1007208860087017108810032
:10072C007008860087010B30C03F0030C13F2200AB
:10073C008C140C150E108E1420000E19A62BA72B42
:10074C00C62B4130F100EE30890BAA2BF10BAA2BF2
:10075C00003220000E19B32BB42BC62B0E1DB72B59
:10076C00B82BB42B3730F100720886008701710862
:10077C0081007008860087010730C03F0030C13F00
:10078C000D1AC92BCA2BE92B4130F100EE30890B25
:10079C00CD2BF10BCD2B003220000D1AD62BD72BE5
:1007AC00E92B0D1EDA2BDB2BD72B3830F10072081E
:1007BC008600870171088100700886008701083067
:1007CC00C03F0030C13F8D1AEC2BED2B0C2C41306F
:1007DC00F100EE30890BF02BF10BF02B00322000E6
:1007EC008D1AF92BFA2B0C2C8D1EFD2BFE2BFA2BB4
:1007FC003930F10072088600870171088100700899
:10080C00860087010930C03F0030C13F0D1B0F2C03
:10081C00102C2F2C4130F100EE30890B132CF10BE6
:10082C00132C003220000D1B1C2C1D2C2F2C0D1FEB
:10083C00202C212C1D2C4330F100720886008701DE
:10084C00710881007008860087010C30C03F0030B1
:10085C00C13F22008C140C150E148E1020000E19A2
:10086C00382C392C582C4130F100EE30890B3C2CB3
:10087C00F10B3C2C003220000E19452C462C582C28
:10088C000E1D492C4A2C462C2A30F1007208860089
:10089C008701710881007008860087010E30C03F07
:1008AC000030C13F0D1A5B2C5C2C7A2C4130F100CE
:1008BC00EE30890B5F2CF10B5F2C003220000D1AEF
:1008CC00682C692C7A2C0D1E6C2C6D2C692C3030FC
:1008DC00F10072088600870171088100700886009B
:1008EC0087010030C03FC13F8D1A7D2C7E2C9D2C82
:1008FC004130F100EE30890B812CF10B812C003250
:10090C0020008D1A8A2C8B2C9D2C8D1E8E2C8F2CBE
:10091C008B2C2330F100720886008701710881004E
:10092C007008860087010F30C03F0030C13F0D1B9F
:10093C00A02CA12CC02C4130F100EE30890BA42C42
:10094C00F10BA42C003220000D1BAD2CAE2CC02CB6
:10095C000D1FB12CB22CAE2C4430F1007208860065
:10096C008701710881007008860087010D30C03F37
:10097C000030C13F0800803177208431803118204D
:10098C0084314E308131F721843180310F20843114
:10099C00F601F60A01308131562184313930F600E6
:1009AC008830F7008031F02084315B3086000030D5
:1009BC00870020308400003085000830FB001600D2
:1009CC001A00FB0BE52C2000BF01BB01BC011A2D4A
:1009DC00F601F60A023081315621843120003B08A1
:1009EC00203EFB007B08F5000130F6000030F700DC
:1009FC003F308131842184313F30F6000030F700E4
:100A0C008031F02084310230FC008630FB009930BC
:100A1C00890B0E2DFB0B0E2DFC0B0E2D0000013047
:100A2C002000BB070030BC3D20308031D720843102
:100A3C00710820003C02031D252D70083B02031C8D
:100A4C00282D292DEE2C0B30FC002630FB005E30BF
:100A5C00890B2E2DFB0B2E2DFC0B2E2D80310F20F8
:100A6C008431F601F60A0130813156218431DB30B4
:100A7C00F6008830F7008031F0208431F601F60A58
:100A8C000230813156218431F430F6008830F70081
:100A9C008031F02084316E30FB007B082000E600B2
:100AAC005F2D5930FB007B08F000663082316A22E2
:100ABC0084312A3020006606031D652D662D572DC6
:100ACC00803158208431003A03196D2D6E2D662D1E
:100ADC0020005908FB007B08F0008031062084318F
:100AEC0080310F208431F601F60A01308131562114
:100AFC0084311430F6008830F7008031F0208431D6
:100B0C00F601F60A02308131562184318930F60023
:100B1C008830F7008031F02084310B30FC00263017
:100B2C00FB005E30890B982DFB0B982DFC0B982D40
:100B3C0080310F208431F601F60A013081315621C3
:100B4C0084312830F6008830F7008031F020843171
:100B5C00F601F60A02308131562184312000E3017E
:100B6C00E401BA0128308600003087001030FB0009
:100B7C0000301E00FB0BBF2D662E5930FB007B088E
:100B8C00F300663081312F2184312330200066063A
:100B9C00031DD12DD22DD92DBA01BA0A0D30E30087
:100BAC000030E400662E44306606031DDE2DDF2D7A
:100BBC00182E630864040319E42DE52D182E630820
:100BCC00FF3EE300FF30643DE40028308031D72045
:100BDC00843171082000B9007008B8003808FF3E55
:100BEC00283E86008701810180310F208431F60177
:100BFC00F60A01308131562184312830F6008830D4
:100C0C00F7008031F0208431F601F60A0230813190
:100C1C00562184312830F6000030F7008031F02066
:100C2C008431662E6630FB007B08F5000130F6003F
:100C3C000030F7002830813184218431F601F60A26
:100C4C0002308131562184312830F6000030F70013
:100C5C008031F020843120006408D1006308D0007A
:100C6C000F30D0050030D1050430D035D10D890BB3
:100C7C003B2E5A08D3005908D2000F30D205003051
:100C8C00D30552085004D40053085104D5006335E1
:100C9C00A03E860087015408C03F5508C13F630839
:100CAC00013EE3000030643DE4000330FC008A3078
:100CBC00FB005630890B602EFB0B602EFC0B602E5C
:100CCC000030200064020D3003196302031C6F2EE8
:100CDC00702EC32D3A08031D742E752EA72E80314D
:100CEC000F208431F601F60A01308131562184310E
:100CFC00CE30F6008830F7008031F0208431F601D8
:100D0C00F60A0230813156218431B430F600883035
:100D1C00F7008031F02084316E30FB007B0820001E
:100D2C00E600A02E5930FB007B08F00066308231C3
:100D3C006A228431233020006606031DA62EA72EBE
:100D4C00982E80310F208431F601F60A0130813162
:100D5C0056218431C130F6008830F7008031F02004
:100D6C008431F601F60A0230813156218431BD30CE
:100D7C00F6008830F7008031F02084312000BD016E
:100D8C00BE013E08803AFB0080307B02031DD02E52
:100D9C000D303D02031CD32ED42ED52EFA2E8031CD
:100DAC0058208431003A0319DC2EDD2ED52E20007C
:100DBC003D35A03E860087010108FB007B08F00052
:100DCC008031062084310330FC008A30FB00563021
:100DDC00890BEE2EFB0BEE2EFC0BEE2E01302000C1
:100DEC00BD070030BE3DC72E803158208431003AFB
:100DFC000319012F022FFA2E20005908FB007B0843
:100E0C00F00080310620843180310F208431F601CE
:100E1C00F60A01308131562184315A30F60088307F
:100E2C00F7008031F0208431F601F60A023081316E
:100E3C00562184314A30F6008830F7008031F0209A
:100E4C008431803149208431FB007B082000D7009D
:100E5C0023009D010B30FC002630FB005E30890B1B
:100E6C00352FFB0B352FFC0B352FF130200057069F
:100E7C00031D412F422F602F80310F208431F6014A
:100E8C00F60A01308131562184316A30F6008830FF
:100E9C00F7008031F0208431F601F60A02308131FE
:100EAC00562184310C30F6008930F7008031F02067
:100EBC008431702F80310F208431F601F60A013015
:100ECC00813156218431A630F6008830F70080310C
:100EDC00F02084310B30FC002630FB005E30890B97
:100EEC00752FFB0B752FFC0B752F80310F20843168
:100EFC00F601F60A01308131562184319830F60022
:100F0C008830F7008031F0208431F601F60A023087
:100F1C008131562184310030F6008930F700803160
:100F2C00F02084316E30FB007B082000E600A62FF9
:100F3C005930FB007B08F000663082316A22843124
:100F4C002A3020006606031DAC2FAD2F9E2F90304B
:100F5C0023009D00803158208431003A0319B72FAB
:100F6C00B82FB02F20005908FB007B08F00080310F
:100F7C000620843180310F208431F601F60A0130CD
:100F8C008131562184310030F6008830F7008031F1
:100F9C00F0208431F601F60A023081315621843179
:100FAC007A30F6008830F7008031F0208431932DB0
:100FBC00803102282F308400803085005B30860021
:100FCC00003087000C308F31F3278731FD01403022
:100FDC008400003085001B308F31ED278731A03025
:100FEC008400003085001A308F31ED2787312000C6
:100FFC008431C12C49346E346934743469346134AD
:10100C006C3469347A34653420347434683465341F
:10101C0020344634503447344134003449346E342F
:10102C0069347434693461346C34693473346134C4
:10103C00743469346F346E3420344634503447344D
:10104C004134003450347734643420347C342034CC
:10105C00233420343E3420345334753462346D34AC
:10106C0069347434003453346F346C3475347434E0
:10107C0069346F346E3420344634613463347434E0
:10108C006F3472347934003450346C3465346134D8
:10109C0073346534203477346134693474342034D7
:1010AC002E342E342E3400344634503447344134EC
:1010BC002034503472346F34633465347334733485
:1010CC0069346E346734003443346F3464346534BB
:1010DC00203469347334203463346F347234723492
:1010EC00653463347434003450346C346534613496
:1010FC007334653420345734613469347434203497
:10110C002E342E34003450346C34653461347334E2
:10111C006534203457346134693474342E342E34AD
:10112C002E340034503472346534733473342034B8
:10113C0027342A342734203474346F342034003468
:10114C0043346F346434653420346934733420345C
:10115C00773472346F346E346734003463346F34E4
:10116C006E34743469346E347534653420342E34F2
:10117C002E342E340034533465346E346434693474
:10118C006E346734203443346F3464346534003443
:10119C00503472346534733473342034273423342C
:1011AC002734203474346F34003450347234653442
:1011BC0073347334203427342A3427342034743471
:1011CC006F3400344934003406340034583400345D
:1011DC0000340034003400340D34013463346F3483
:1011EC006E34743469346E347534653420342E3472
:1011FC002E340034743472347934203461346734CE
:10120C00613469346E342E342E34003454346834E2
:10121C0061346E346B34203479346F3475342E343D
:04122C002E34003428
:101F9E00803123208F312400161408008031232035
:101FAE008F3124001615080071082000E800700813
:101FBE00E700080071082000EC007008EB00080034
:101FCE0071082000EA007008E90008006400800132
:101FDE000131890BEE2F0034FE0012001E00FE0BA5
:101FEE00F42F0034683021009900980122009601E8
:021FFE000800D9
:020000040001F9
:06000E00FC3FFF3E9F3F96
:00000001FF
